{
  "_format": "hh-sol-artifact-1",
  "contractName": "MyEpicGame",
  "sourceName": "contracts/MyEpicGame.sol",
  "abi": [
    {
      "inputs": [
        {
          "internalType": "string[]",
          "name": "characterNames",
          "type": "string[]"
        },
        {
          "internalType": "string[]",
          "name": "characterImageURIs",
          "type": "string[]"
        },
        {
          "internalType": "uint256[]",
          "name": "characterHp",
          "type": "uint256[]"
        },
        {
          "internalType": "uint256[]",
          "name": "characterAttackDmg",
          "type": "uint256[]"
        },
        {
          "internalType": "string",
          "name": "bossName",
          "type": "string"
        },
        {
          "internalType": "string",
          "name": "bossImageURI",
          "type": "string"
        },
        {
          "internalType": "uint256",
          "name": "bossHp",
          "type": "uint256"
        },
        {
          "internalType": "uint256",
          "name": "bossAttackDamage",
          "type": "uint256"
        }
      ],
      "stateMutability": "nonpayable",
      "type": "constructor"
    },
    {
      "anonymous": false,
      "inputs": [
        {
          "indexed": true,
          "internalType": "address",
          "name": "owner",
          "type": "address"
        },
        {
          "indexed": true,
          "internalType": "address",
          "name": "approved",
          "type": "address"
        },
        {
          "indexed": true,
          "internalType": "uint256",
          "name": "tokenId",
          "type": "uint256"
        }
      ],
      "name": "Approval",
      "type": "event"
    },
    {
      "anonymous": false,
      "inputs": [
        {
          "indexed": true,
          "internalType": "address",
          "name": "owner",
          "type": "address"
        },
        {
          "indexed": true,
          "internalType": "address",
          "name": "operator",
          "type": "address"
        },
        {
          "indexed": false,
          "internalType": "bool",
          "name": "approved",
          "type": "bool"
        }
      ],
      "name": "ApprovalForAll",
      "type": "event"
    },
    {
      "anonymous": false,
      "inputs": [
        {
          "indexed": false,
          "internalType": "uint256",
          "name": "newBossHp",
          "type": "uint256"
        },
        {
          "indexed": false,
          "internalType": "uint256",
          "name": "newPlayerHp",
          "type": "uint256"
        }
      ],
      "name": "AttackComplete",
      "type": "event"
    },
    {
      "anonymous": false,
      "inputs": [
        {
          "indexed": false,
          "internalType": "address",
          "name": "sender",
          "type": "address"
        },
        {
          "indexed": false,
          "internalType": "uint256",
          "name": "tokenId",
          "type": "uint256"
        },
        {
          "indexed": false,
          "internalType": "uint256",
          "name": "characterIndex",
          "type": "uint256"
        }
      ],
      "name": "CharacterNFTMinted",
      "type": "event"
    },
    {
      "anonymous": false,
      "inputs": [
        {
          "indexed": true,
          "internalType": "address",
          "name": "from",
          "type": "address"
        },
        {
          "indexed": true,
          "internalType": "address",
          "name": "to",
          "type": "address"
        },
        {
          "indexed": true,
          "internalType": "uint256",
          "name": "tokenId",
          "type": "uint256"
        }
      ],
      "name": "Transfer",
      "type": "event"
    },
    {
      "inputs": [
        {
          "internalType": "address",
          "name": "to",
          "type": "address"
        },
        {
          "internalType": "uint256",
          "name": "tokenId",
          "type": "uint256"
        }
      ],
      "name": "approve",
      "outputs": [],
      "stateMutability": "nonpayable",
      "type": "function"
    },
    {
      "inputs": [],
      "name": "attackBoss",
      "outputs": [],
      "stateMutability": "nonpayable",
      "type": "function"
    },
    {
      "inputs": [
        {
          "internalType": "address",
          "name": "owner",
          "type": "address"
        }
      ],
      "name": "balanceOf",
      "outputs": [
        {
          "internalType": "uint256",
          "name": "",
          "type": "uint256"
        }
      ],
      "stateMutability": "view",
      "type": "function"
    },
    {
      "inputs": [],
      "name": "bigBoss",
      "outputs": [
        {
          "internalType": "string",
          "name": "name",
          "type": "string"
        },
        {
          "internalType": "string",
          "name": "imageURI",
          "type": "string"
        },
        {
          "internalType": "uint256",
          "name": "hp",
          "type": "uint256"
        },
        {
          "internalType": "uint256",
          "name": "maxHp",
          "type": "uint256"
        },
        {
          "internalType": "uint256",
          "name": "attackDamage",
          "type": "uint256"
        }
      ],
      "stateMutability": "view",
      "type": "function"
    },
    {
      "inputs": [],
      "name": "checkIfUserHasNFT",
      "outputs": [
        {
          "components": [
            {
              "internalType": "uint256",
              "name": "characterIndex",
              "type": "uint256"
            },
            {
              "internalType": "string",
              "name": "name",
              "type": "string"
            },
            {
              "internalType": "string",
              "name": "imageURI",
              "type": "string"
            },
            {
              "internalType": "uint256",
              "name": "hp",
              "type": "uint256"
            },
            {
              "internalType": "uint256",
              "name": "maxHp",
              "type": "uint256"
            },
            {
              "internalType": "uint256",
              "name": "attackDamage",
              "type": "uint256"
            }
          ],
          "internalType": "struct MyEpicGame.CharacterAttributes",
          "name": "",
          "type": "tuple"
        }
      ],
      "stateMutability": "view",
      "type": "function"
    },
    {
      "inputs": [],
      "name": "getAllDefaultCharacters",
      "outputs": [
        {
          "components": [
            {
              "internalType": "uint256",
              "name": "characterIndex",
              "type": "uint256"
            },
            {
              "internalType": "string",
              "name": "name",
              "type": "string"
            },
            {
              "internalType": "string",
              "name": "imageURI",
              "type": "string"
            },
            {
              "internalType": "uint256",
              "name": "hp",
              "type": "uint256"
            },
            {
              "internalType": "uint256",
              "name": "maxHp",
              "type": "uint256"
            },
            {
              "internalType": "uint256",
              "name": "attackDamage",
              "type": "uint256"
            }
          ],
          "internalType": "struct MyEpicGame.CharacterAttributes[]",
          "name": "",
          "type": "tuple[]"
        }
      ],
      "stateMutability": "view",
      "type": "function"
    },
    {
      "inputs": [],
      "name": "getAllPlayers",
      "outputs": [
        {
          "components": [
            {
              "internalType": "uint256",
              "name": "characterIndex",
              "type": "uint256"
            },
            {
              "internalType": "string",
              "name": "name",
              "type": "string"
            },
            {
              "internalType": "string",
              "name": "imageURI",
              "type": "string"
            },
            {
              "internalType": "uint256",
              "name": "hp",
              "type": "uint256"
            },
            {
              "internalType": "uint256",
              "name": "maxHp",
              "type": "uint256"
            },
            {
              "internalType": "uint256",
              "name": "attackDamage",
              "type": "uint256"
            }
          ],
          "internalType": "struct MyEpicGame.CharacterAttributes[]",
          "name": "",
          "type": "tuple[]"
        }
      ],
      "stateMutability": "view",
      "type": "function"
    },
    {
      "inputs": [
        {
          "internalType": "uint256",
          "name": "tokenId",
          "type": "uint256"
        }
      ],
      "name": "getApproved",
      "outputs": [
        {
          "internalType": "address",
          "name": "",
          "type": "address"
        }
      ],
      "stateMutability": "view",
      "type": "function"
    },
    {
      "inputs": [],
      "name": "getBigBoss",
      "outputs": [
        {
          "components": [
            {
              "internalType": "string",
              "name": "name",
              "type": "string"
            },
            {
              "internalType": "string",
              "name": "imageURI",
              "type": "string"
            },
            {
              "internalType": "uint256",
              "name": "hp",
              "type": "uint256"
            },
            {
              "internalType": "uint256",
              "name": "maxHp",
              "type": "uint256"
            },
            {
              "internalType": "uint256",
              "name": "attackDamage",
              "type": "uint256"
            }
          ],
          "internalType": "struct MyEpicGame.BigBoss",
          "name": "",
          "type": "tuple"
        }
      ],
      "stateMutability": "view",
      "type": "function"
    },
    {
      "inputs": [
        {
          "internalType": "address",
          "name": "owner",
          "type": "address"
        },
        {
          "internalType": "address",
          "name": "operator",
          "type": "address"
        }
      ],
      "name": "isApprovedForAll",
      "outputs": [
        {
          "internalType": "bool",
          "name": "",
          "type": "bool"
        }
      ],
      "stateMutability": "view",
      "type": "function"
    },
    {
      "inputs": [
        {
          "internalType": "uint256",
          "name": "_characterIndex",
          "type": "uint256"
        }
      ],
      "name": "mintCharacterNFT",
      "outputs": [],
      "stateMutability": "nonpayable",
      "type": "function"
    },
    {
      "inputs": [],
      "name": "name",
      "outputs": [
        {
          "internalType": "string",
          "name": "",
          "type": "string"
        }
      ],
      "stateMutability": "view",
      "type": "function"
    },
    {
      "inputs": [
        {
          "internalType": "uint256",
          "name": "",
          "type": "uint256"
        }
      ],
      "name": "nftHolderAttributes",
      "outputs": [
        {
          "internalType": "uint256",
          "name": "characterIndex",
          "type": "uint256"
        },
        {
          "internalType": "string",
          "name": "name",
          "type": "string"
        },
        {
          "internalType": "string",
          "name": "imageURI",
          "type": "string"
        },
        {
          "internalType": "uint256",
          "name": "hp",
          "type": "uint256"
        },
        {
          "internalType": "uint256",
          "name": "maxHp",
          "type": "uint256"
        },
        {
          "internalType": "uint256",
          "name": "attackDamage",
          "type": "uint256"
        }
      ],
      "stateMutability": "view",
      "type": "function"
    },
    {
      "inputs": [
        {
          "internalType": "address",
          "name": "",
          "type": "address"
        }
      ],
      "name": "nftHolders",
      "outputs": [
        {
          "internalType": "uint256",
          "name": "",
          "type": "uint256"
        }
      ],
      "stateMutability": "view",
      "type": "function"
    },
    {
      "inputs": [
        {
          "internalType": "uint256",
          "name": "tokenId",
          "type": "uint256"
        }
      ],
      "name": "ownerOf",
      "outputs": [
        {
          "internalType": "address",
          "name": "",
          "type": "address"
        }
      ],
      "stateMutability": "view",
      "type": "function"
    },
    {
      "inputs": [
        {
          "internalType": "address",
          "name": "from",
          "type": "address"
        },
        {
          "internalType": "address",
          "name": "to",
          "type": "address"
        },
        {
          "internalType": "uint256",
          "name": "tokenId",
          "type": "uint256"
        }
      ],
      "name": "safeTransferFrom",
      "outputs": [],
      "stateMutability": "nonpayable",
      "type": "function"
    },
    {
      "inputs": [
        {
          "internalType": "address",
          "name": "from",
          "type": "address"
        },
        {
          "internalType": "address",
          "name": "to",
          "type": "address"
        },
        {
          "internalType": "uint256",
          "name": "tokenId",
          "type": "uint256"
        },
        {
          "internalType": "bytes",
          "name": "data",
          "type": "bytes"
        }
      ],
      "name": "safeTransferFrom",
      "outputs": [],
      "stateMutability": "nonpayable",
      "type": "function"
    },
    {
      "inputs": [
        {
          "internalType": "address",
          "name": "operator",
          "type": "address"
        },
        {
          "internalType": "bool",
          "name": "approved",
          "type": "bool"
        }
      ],
      "name": "setApprovalForAll",
      "outputs": [],
      "stateMutability": "nonpayable",
      "type": "function"
    },
    {
      "inputs": [
        {
          "internalType": "bytes4",
          "name": "interfaceId",
          "type": "bytes4"
        }
      ],
      "name": "supportsInterface",
      "outputs": [
        {
          "internalType": "bool",
          "name": "",
          "type": "bool"
        }
      ],
      "stateMutability": "view",
      "type": "function"
    },
    {
      "inputs": [],
      "name": "symbol",
      "outputs": [
        {
          "internalType": "string",
          "name": "",
          "type": "string"
        }
      ],
      "stateMutability": "view",
      "type": "function"
    },
    {
      "inputs": [
        {
          "internalType": "uint256",
          "name": "_tokenId",
          "type": "uint256"
        }
      ],
      "name": "tokenURI",
      "outputs": [
        {
          "internalType": "string",
          "name": "",
          "type": "string"
        }
      ],
      "stateMutability": "view",
      "type": "function"
    },
    {
      "inputs": [
        {
          "internalType": "address",
          "name": "from",
          "type": "address"
        },
        {
          "internalType": "address",
          "name": "to",
          "type": "address"
        },
        {
          "internalType": "uint256",
          "name": "tokenId",
          "type": "uint256"
        }
      ],
      "name": "transferFrom",
      "outputs": [],
      "stateMutability": "nonpayable",
      "type": "function"
    }
  ],
  "bytecode": "0x60806040523480156200001157600080fd5b50604051620059bc380380620059bc833981810160405281019062000037919062000b6f565b6040518060400160405280600881526020017f4f6e6550696563650000000000000000000000000000000000000000000000008152506040518060400160405280600881526020017f4f4e4550494543450000000000000000000000000000000000000000000000008152508160009080519060200190620000bb92919062000715565b508060019080519060200190620000d492919062000715565b5050506040518060a0016040528085815260200184815260200183815260200183815260200182815250600660008201518160000190805190602001906200011e92919062000715565b5060208201518160010190805190602001906200013d92919062000715565b50604082015181600201556060820151816003015560808201518160040155905050620002c06040518060600160405280602a815260200162005992602a9139600660000180546200018f9062000d21565b80601f0160208091040260200160405190810160405280929190818152602001828054620001bd9062000d21565b80156200020e5780601f10620001e2576101008083540402835291602001916200020e565b820191906000526020600020905b815481529060010190602001808311620001f057829003601f168201915b5050505050600660020154600660010180546200022b9062000d21565b80601f0160208091040260200160405190810160405280929190818152602001828054620002599062000d21565b8015620002aa5780601f106200027e57610100808354040283529160200191620002aa565b820191906000526020600020905b8154815290600101906020018083116200028c57829003601f168201915b50505050506200062a60201b62001d0c1760201c565b60005b88518110156200060457600c6040518060c001604052808381526020018b8481518110620002f657620002f562000d57565b5b602002602001015181526020018a848151811062000319576200031862000d57565b5b602002602001015181526020018984815181106200033c576200033b62000d57565b5b602002602001015181526020018984815181106200035f576200035e62000d57565b5b6020026020010151815260200188848151811062000382576200038162000d57565b5b60200260200101518152509080600181540180825580915050600190039060005260206000209060060201600090919091909150600082015181600001556020820151816001019080519060200190620003de92919062000715565b506040820151816002019080519060200190620003fd92919062000715565b50606082015181600301556080820151816004015560a0820151816005015550506000600c828154811062000437576200043662000d57565b5b90600052602060002090600602016040518060c0016040529081600082015481526020016001820180546200046c9062000d21565b80601f01602080910402602001604051908101604052809291908181526020018280546200049a9062000d21565b8015620004eb5780601f10620004bf57610100808354040283529160200191620004eb565b820191906000526020600020905b815481529060010190602001808311620004cd57829003601f168201915b50505050508152602001600282018054620005069062000d21565b80601f0160208091040260200160405190810160405280929190818152602001828054620005349062000d21565b8015620005855780601f10620005595761010080835404028352916020019162000585565b820191906000526020600020905b8154815290600101906020018083116200056757829003601f168201915b5050505050815260200160038201548152602001600482015481526020016005820154815250509050620005ec6040518060600160405280602581526020016200596d602591398260200151836060015184604001516200062a60201b62001d0c1760201c565b50600181620005fc919062000db5565b9050620002c3565b506200061c600b620006d660201b62001dae1760201c565b505050505050505062000ee2565b620006d08484848460405160240162000647949392919062000e80565b6040516020818303038152906040527f5d1a971a000000000000000000000000000000000000000000000000000000007bffffffffffffffffffffffffffffffffffffffffffffffffffffffff19166020820180517bffffffffffffffffffffffffffffffffffffffffffffffffffffffff8381831617835250505050620006ec60201b60201c565b50505050565b6001816000016000828254019250508190555050565b60008151905060006a636f6e736f6c652e6c6f679050602083016000808483855afa5050505050565b828054620007239062000d21565b90600052602060002090601f01602090048101928262000747576000855562000793565b82601f106200076257805160ff191683800117855562000793565b8280016001018555821562000793579182015b828111156200079257825182559160200191906001019062000775565b5b509050620007a29190620007a6565b5090565b5b80821115620007c1576000816000905550600101620007a7565b5090565b6000604051905090565b600080fd5b600080fd5b600080fd5b6000601f19601f8301169050919050565b7f4e487b7100000000000000000000000000000000000000000000000000000000600052604160045260246000fd5b6200082982620007de565b810181811067ffffffffffffffff821117156200084b576200084a620007ef565b5b80604052505050565b600062000860620007c5565b90506200086e82826200081e565b919050565b600067ffffffffffffffff821115620008915762000890620007ef565b5b602082029050602081019050919050565b600080fd5b600080fd5b600067ffffffffffffffff821115620008ca57620008c9620007ef565b5b620008d582620007de565b9050602081019050919050565b60005b8381101562000902578082015181840152602081019050620008e5565b8381111562000912576000848401525b50505050565b60006200092f6200092984620008ac565b62000854565b9050828152602081018484840111156200094e576200094d620008a7565b5b6200095b848285620008e2565b509392505050565b600082601f8301126200097b576200097a620007d9565b5b81516200098d84826020860162000918565b91505092915050565b6000620009ad620009a78462000873565b62000854565b90508083825260208201905060208402830185811115620009d357620009d2620008a2565b5b835b8181101562000a2157805167ffffffffffffffff811115620009fc57620009fb620007d9565b5b80860162000a0b898262000963565b85526020850194505050602081019050620009d5565b5050509392505050565b600082601f83011262000a435762000a42620007d9565b5b815162000a5584826020860162000996565b91505092915050565b600067ffffffffffffffff82111562000a7c5762000a7b620007ef565b5b602082029050602081019050919050565b6000819050919050565b62000aa28162000a8d565b811462000aae57600080fd5b50565b60008151905062000ac28162000a97565b92915050565b600062000adf62000ad98462000a5e565b62000854565b9050808382526020820190506020840283018581111562000b055762000b04620008a2565b5b835b8181101562000b32578062000b1d888262000ab1565b84526020840193505060208101905062000b07565b5050509392505050565b600082601f83011262000b545762000b53620007d9565b5b815162000b6684826020860162000ac8565b91505092915050565b600080600080600080600080610100898b03121562000b935762000b92620007cf565b5b600089015167ffffffffffffffff81111562000bb45762000bb3620007d4565b5b62000bc28b828c0162000a2b565b985050602089015167ffffffffffffffff81111562000be65762000be5620007d4565b5b62000bf48b828c0162000a2b565b975050604089015167ffffffffffffffff81111562000c185762000c17620007d4565b5b62000c268b828c0162000b3c565b965050606089015167ffffffffffffffff81111562000c4a5762000c49620007d4565b5b62000c588b828c0162000b3c565b955050608089015167ffffffffffffffff81111562000c7c5762000c7b620007d4565b5b62000c8a8b828c0162000963565b94505060a089015167ffffffffffffffff81111562000cae5762000cad620007d4565b5b62000cbc8b828c0162000963565b93505060c062000ccf8b828c0162000ab1565b92505060e062000ce28b828c0162000ab1565b9150509295985092959890939650565b7f4e487b7100000000000000000000000000000000000000000000000000000000600052602260045260246000fd5b6000600282049050600182168062000d3a57607f821691505b6020821081141562000d515762000d5062000cf2565b5b50919050565b7f4e487b7100000000000000000000000000000000000000000000000000000000600052603260045260246000fd5b7f4e487b7100000000000000000000000000000000000000000000000000000000600052601160045260246000fd5b600062000dc28262000a8d565b915062000dcf8362000a8d565b9250827fffffffffffffffffffffffffffffffffffffffffffffffffffffffffffffffff0382111562000e075762000e0662000d86565b5b828201905092915050565b600081519050919050565b600082825260208201905092915050565b600062000e3b8262000e12565b62000e47818562000e1d565b935062000e59818560208601620008e2565b62000e6481620007de565b840191505092915050565b62000e7a8162000a8d565b82525050565b6000608082019050818103600083015262000e9c818762000e2e565b9050818103602083015262000eb2818662000e2e565b905062000ec3604083018562000e6f565b818103606083015262000ed7818462000e2e565b905095945050505050565b614a7b8062000ef26000396000f3fe608060405234801561001057600080fd5b50600436106101425760003560e01c806398da4c95116100b8578063c87b56dd1161007c578063c87b56dd14610392578063c8cf27f4146103c2578063d4f24c5b146103e0578063e985e9c5146103ea578063efa1c4821461041a578063f8b81ef71461043857610142565b806398da4c95146102e5578063a22cb4651461031a578063a9c3267914610336578063b88d4fde14610358578063b953084e1461037457610142565b806323b872dd1161010a57806323b872dd146101ff57806342842e0e1461021b5780636352211e1461023757806370a08231146102675780637df124a11461029757806395d89b41146102c757610142565b806301ffc9a7146101475780630665f9611461017757806306fdde0314610195578063081812fc146101b3578063095ea7b3146101e3575b600080fd5b610161600480360381019061015c91906130b8565b610454565b60405161016e9190613100565b60405180910390f35b61017f610536565b60405161018c919061324a565b60405180910390f35b61019d610692565b6040516101aa91906132b6565b60405180910390f35b6101cd60048036038101906101c89190613304565b610724565b6040516101da9190613372565b60405180910390f35b6101fd60048036038101906101f891906133b9565b61076a565b005b610219600480360381019061021491906133f9565b610882565b005b610235600480360381019061023091906133f9565b6108e2565b005b610251600480360381019061024c9190613304565b610902565b60405161025e9190613372565b60405180910390f35b610281600480360381019061027c919061344c565b610989565b60405161028e9190613488565b60405180910390f35b6102b160048036038101906102ac919061344c565b610a41565b6040516102be9190613488565b60405180910390f35b6102cf610a59565b6040516102dc91906132b6565b60405180910390f35b6102ff60048036038101906102fa9190613304565b610aeb565b604051610311969594939291906134a3565b60405180910390f35b610334600480360381019061032f919061353e565b610c37565b005b61033e610c4d565b60405161034f95949392919061357e565b60405180910390f35b610372600480360381019061036d9190613714565b610d81565b005b61037c610de3565b60405161038991906138e9565b60405180910390f35b6103ac60048036038101906103a79190613304565b610f8e565b6040516103b991906132b6565b60405180910390f35b6103ca6111a9565b6040516103d7919061399b565b60405180910390f35b6103e8611381565b005b61040460048036038101906103ff91906139bd565b61170c565b6040516104119190613100565b60405180910390f35b6104226117a0565b60405161042f91906138e9565b60405180910390f35b610452600480360381019061044d9190613304565b6119d6565b005b60007f80ac58cd000000000000000000000000000000000000000000000000000000007bffffffffffffffffffffffffffffffffffffffffffffffffffffffff1916827bffffffffffffffffffffffffffffffffffffffffffffffffffffffff1916148061051f57507f5b5e139f000000000000000000000000000000000000000000000000000000007bffffffffffffffffffffffffffffffffffffffffffffffffffffffff1916827bffffffffffffffffffffffffffffffffffffffffffffffffffffffff1916145b8061052f575061052e82611dc4565b5b9050919050565b61053e612f44565b60066040518060a001604052908160008201805461055b90613a2c565b80601f016020809104026020016040519081016040528092919081815260200182805461058790613a2c565b80156105d45780601f106105a9576101008083540402835291602001916105d4565b820191906000526020600020905b8154815290600101906020018083116105b757829003601f168201915b505050505081526020016001820180546105ed90613a2c565b80601f016020809104026020016040519081016040528092919081815260200182805461061990613a2c565b80156106665780601f1061063b57610100808354040283529160200191610666565b820191906000526020600020905b81548152906001019060200180831161064957829003601f168201915b505050505081526020016002820154815260200160038201548152602001600482015481525050905090565b6060600080546106a190613a2c565b80601f01602080910402602001604051908101604052809291908181526020018280546106cd90613a2c565b801561071a5780601f106106ef5761010080835404028352916020019161071a565b820191906000526020600020905b8154815290600101906020018083116106fd57829003601f168201915b5050505050905090565b600061072f82611e2e565b6004600083815260200190815260200160002060009054906101000a900473ffffffffffffffffffffffffffffffffffffffff169050919050565b600061077582610902565b90508073ffffffffffffffffffffffffffffffffffffffff168373ffffffffffffffffffffffffffffffffffffffff1614156107e6576040517f08c379a00000000000000000000000000000000000000000000000000000000081526004016107dd90613ad0565b60405180910390fd5b8073ffffffffffffffffffffffffffffffffffffffff16610805611e79565b73ffffffffffffffffffffffffffffffffffffffff16148061083457506108338161082e611e79565b61170c565b5b610873576040517f08c379a000000000000000000000000000000000000000000000000000000000815260040161086a90613b62565b60405180910390fd5b61087d8383611e81565b505050565b61089361088d611e79565b82611f3a565b6108d2576040517f08c379a00000000000000000000000000000000000000000000000000000000081526004016108c990613bf4565b60405180910390fd5b6108dd838383611fcf565b505050565b6108fd83838360405180602001604052806000815250610d81565b505050565b60008061090e836122c9565b9050600073ffffffffffffffffffffffffffffffffffffffff168173ffffffffffffffffffffffffffffffffffffffff161415610980576040517f08c379a000000000000000000000000000000000000000000000000000000000815260040161097790613c60565b60405180910390fd5b80915050919050565b60008073ffffffffffffffffffffffffffffffffffffffff168273ffffffffffffffffffffffffffffffffffffffff1614156109fa576040517f08c379a00000000000000000000000000000000000000000000000000000000081526004016109f190613cf2565b60405180910390fd5b600360008373ffffffffffffffffffffffffffffffffffffffff1673ffffffffffffffffffffffffffffffffffffffff168152602001908152602001600020549050919050565b600e6020528060005260406000206000915090505481565b606060018054610a6890613a2c565b80601f0160208091040260200160405190810160405280929190818152602001828054610a9490613a2c565b8015610ae15780601f10610ab657610100808354040283529160200191610ae1565b820191906000526020600020905b815481529060010190602001808311610ac457829003601f168201915b5050505050905090565b600d602052806000526040600020600091509050806000015490806001018054610b1490613a2c565b80601f0160208091040260200160405190810160405280929190818152602001828054610b4090613a2c565b8015610b8d5780601f10610b6257610100808354040283529160200191610b8d565b820191906000526020600020905b815481529060010190602001808311610b7057829003601f168201915b505050505090806002018054610ba290613a2c565b80601f0160208091040260200160405190810160405280929190818152602001828054610bce90613a2c565b8015610c1b5780601f10610bf057610100808354040283529160200191610c1b565b820191906000526020600020905b815481529060010190602001808311610bfe57829003601f168201915b5050505050908060030154908060040154908060050154905086565b610c49610c42611e79565b8383612306565b5050565b6006806000018054610c5e90613a2c565b80601f0160208091040260200160405190810160405280929190818152602001828054610c8a90613a2c565b8015610cd75780601f10610cac57610100808354040283529160200191610cd7565b820191906000526020600020905b815481529060010190602001808311610cba57829003601f168201915b505050505090806001018054610cec90613a2c565b80601f0160208091040260200160405190810160405280929190818152602001828054610d1890613a2c565b8015610d655780601f10610d3a57610100808354040283529160200191610d65565b820191906000526020600020905b815481529060010190602001808311610d4857829003601f168201915b5050505050908060020154908060030154908060040154905085565b610d92610d8c611e79565b83611f3a565b610dd1576040517f08c379a0000000000000000000000000000000000000000000000000000000008152600401610dc890613bf4565b60405180910390fd5b610ddd84848484612473565b50505050565b6060600c805480602002602001604051908101604052809291908181526020016000905b82821015610f8557838290600052602060002090600602016040518060c001604052908160008201548152602001600182018054610e4490613a2c565b80601f0160208091040260200160405190810160405280929190818152602001828054610e7090613a2c565b8015610ebd5780601f10610e9257610100808354040283529160200191610ebd565b820191906000526020600020905b815481529060010190602001808311610ea057829003601f168201915b50505050508152602001600282018054610ed690613a2c565b80601f0160208091040260200160405190810160405280929190818152602001828054610f0290613a2c565b8015610f4f5780601f10610f2457610100808354040283529160200191610f4f565b820191906000526020600020905b815481529060010190602001808311610f3257829003601f168201915b50505050508152602001600382015481526020016004820154815260200160058201548152505081526020019060010190610e07565b50505050905090565b60606000600d60008481526020019081526020016000206040518060c001604052908160008201548152602001600182018054610fca90613a2c565b80601f0160208091040260200160405190810160405280929190818152602001828054610ff690613a2c565b80156110435780601f1061101857610100808354040283529160200191611043565b820191906000526020600020905b81548152906001019060200180831161102657829003601f168201915b5050505050815260200160028201805461105c90613a2c565b80601f016020809104026020016040519081016040528092919081815260200182805461108890613a2c565b80156110d55780601f106110aa576101008083540402835291602001916110d5565b820191906000526020600020905b8154815290600101906020018083116110b857829003601f168201915b5050505050815260200160038201548152602001600482015481526020016005820154815250509050600061110d82606001516124cf565b9050600061111e83608001516124cf565b9050600061112f8460a001516124cf565b905060006111758560200151611144896124cf565b876040015187878760405160200161116196959493929190613fd4565b6040516020818303038152906040526125a7565b905060008160405160200161118a91906140c5565b6040516020818303038152906040529050809650505050505050919050565b6111b1612f73565b6000600e60003373ffffffffffffffffffffffffffffffffffffffff1673ffffffffffffffffffffffffffffffffffffffff168152602001908152602001600020549050600081111561137057600d60008281526020019081526020016000206040518060c00160405290816000820154815260200160018201805461123690613a2c565b80601f016020809104026020016040519081016040528092919081815260200182805461126290613a2c565b80156112af5780601f10611284576101008083540402835291602001916112af565b820191906000526020600020905b81548152906001019060200180831161129257829003601f168201915b505050505081526020016002820180546112c890613a2c565b80601f01602080910402602001604051908101604052809291908181526020018280546112f490613a2c565b80156113415780601f1061131657610100808354040283529160200191611341565b820191906000526020600020905b81548152906001019060200180831161132457829003601f168201915b50505050508152602001600382015481526020016004820154815260200160058201548152505091505061137e565b611378612f73565b80925050505b90565b6000600e60003373ffffffffffffffffffffffffffffffffffffffff1673ffffffffffffffffffffffffffffffffffffffff1681526020019081526020016000205490506000600d600083815260200190815260200160002090506114946040518060600160405280603c8152602001614a0a603c913982600101805461140790613a2c565b80601f016020809104026020016040519081016040528092919081815260200182805461143390613a2c565b80156114805780601f1061145557610100808354040283529160200191611480565b820191906000526020600020905b81548152906001019060200180831161146357829003601f168201915b50505050508360030154846005015461273f565b61156c6040518060400160405280601b81526020017f426f73732025732068617320257320485020616e642025732041440000000000815250600660000180546114dd90613a2c565b80601f016020809104026020016040519081016040528092919081815260200182805461150990613a2c565b80156115565780601f1061152b57610100808354040283529160200191611556565b820191906000526020600020905b81548152906001019060200180831161153957829003601f168201915b505050505060066002015460066004015461273f565b60008160030154116115b3576040517f08c379a00000000000000000000000000000000000000000000000000000000081526004016115aa90614159565b60405180910390fd5b6000600660020154116115fb576040517f08c379a00000000000000000000000000000000000000000000000000000000081526004016115f2906141eb565b60405180910390fd5b8060050154600660020154101561161c57600060066002018190555061163b565b8060050154600660020154611631919061423a565b6006600201819055505b6006600401548160030154101561165b5760008160030181905550611679565b6006600401548160030154611670919061423a565b81600301819055505b6116a060405180606001604052806025815260200161494f602591396006600201546127e1565b6116c66040518060600160405280602881526020016149b46028913982600301546127e1565b7f838ab28464562786a6c4ab2311964b82fa60bd9b14aa7e856af1f3f18d41a414600660020154826003015460405161170092919061426e565b60405180910390a15050565b6000600560008473ffffffffffffffffffffffffffffffffffffffff1673ffffffffffffffffffffffffffffffffffffffff16815260200190815260200160002060008373ffffffffffffffffffffffffffffffffffffffff1673ffffffffffffffffffffffffffffffffffffffff16815260200190815260200160002060009054906101000a900460ff16905092915050565b6060600060016117b0600b61287d565b6117ba919061423a565b67ffffffffffffffff8111156117d3576117d26135e9565b5b60405190808252806020026020018201604052801561180c57816020015b6117f9612f73565b8152602001906001900390816117f15790505b5090506000600190505b611820600b61287d565b8110156119ce57600d60008281526020019081526020016000206040518060c00160405290816000820154815260200160018201805461185f90613a2c565b80601f016020809104026020016040519081016040528092919081815260200182805461188b90613a2c565b80156118d85780601f106118ad576101008083540402835291602001916118d8565b820191906000526020600020905b8154815290600101906020018083116118bb57829003601f168201915b505050505081526020016002820180546118f190613a2c565b80601f016020809104026020016040519081016040528092919081815260200182805461191d90613a2c565b801561196a5780601f1061193f5761010080835404028352916020019161196a565b820191906000526020600020905b81548152906001019060200180831161194d57829003601f168201915b5050505050815260200160038201548152602001600482015481526020016005820154815250508260018361199f919061423a565b815181106119b0576119af614297565b5b602002602001018190525080806119c6906142c6565b915050611816565b508091505090565b60006119e2600b61287d565b90506119ee338261288b565b6040518060c00160405280838152602001600c8481548110611a1357611a12614297565b5b90600052602060002090600602016001018054611a2f90613a2c565b80601f0160208091040260200160405190810160405280929190818152602001828054611a5b90613a2c565b8015611aa85780601f10611a7d57610100808354040283529160200191611aa8565b820191906000526020600020905b815481529060010190602001808311611a8b57829003601f168201915b50505050508152602001600c8481548110611ac657611ac5614297565b5b90600052602060002090600602016002018054611ae290613a2c565b80601f0160208091040260200160405190810160405280929190818152602001828054611b0e90613a2c565b8015611b5b5780601f10611b3057610100808354040283529160200191611b5b565b820191906000526020600020905b815481529060010190602001808311611b3e57829003601f168201915b50505050508152602001600c8481548110611b7957611b78614297565b5b9060005260206000209060060201600301548152602001600c8481548110611ba457611ba3614297565b5b9060005260206000209060060201600401548152602001600c8481548110611bcf57611bce614297565b5b906000526020600020906006020160050154815250600d6000838152602001908152602001600020600082015181600001556020820151816001019080519060200190611c1d929190612fa9565b506040820151816002019080519060200190611c3a929190612fa9565b50606082015181600301556080820151816004015560a08201518160050155905050611c7f6040518060600160405280602e81526020016149dc602e913982846128a9565b80600e60003373ffffffffffffffffffffffffffffffffffffffff1673ffffffffffffffffffffffffffffffffffffffff16815260200190815260200160002081905550611ccd600b611dae565b7f4bc303fd457a97b4691b9af582ce71868a3d258638c8d4f8c60988a0f0bfb8cd338284604051611d009392919061430f565b60405180910390a15050565b611da884848484604051602401611d269493929190614346565b6040516020818303038152906040527f5d1a971a000000000000000000000000000000000000000000000000000000007bffffffffffffffffffffffffffffffffffffffffffffffffffffffff19166020820180517bffffffffffffffffffffffffffffffffffffffffffffffffffffffff8381831617835250505050612948565b50505050565b6001816000016000828254019250508190555050565b60007f01ffc9a7000000000000000000000000000000000000000000000000000000007bffffffffffffffffffffffffffffffffffffffffffffffffffffffff1916827bffffffffffffffffffffffffffffffffffffffffffffffffffffffff1916149050919050565b611e3781612971565b611e76576040517f08c379a0000000000000000000000000000000000000000000000000000000008152600401611e6d90613c60565b60405180910390fd5b50565b600033905090565b816004600083815260200190815260200160002060006101000a81548173ffffffffffffffffffffffffffffffffffffffff021916908373ffffffffffffffffffffffffffffffffffffffff160217905550808273ffffffffffffffffffffffffffffffffffffffff16611ef483610902565b73ffffffffffffffffffffffffffffffffffffffff167f8c5be1e5ebec7d5bd14f71427d1e84f3dd0314c0f7b2291e5b200ac8c7c3b92560405160405180910390a45050565b600080611f4683610902565b90508073ffffffffffffffffffffffffffffffffffffffff168473ffffffffffffffffffffffffffffffffffffffff161480611f885750611f87818561170c565b5b80611fc657508373ffffffffffffffffffffffffffffffffffffffff16611fae84610724565b73ffffffffffffffffffffffffffffffffffffffff16145b91505092915050565b8273ffffffffffffffffffffffffffffffffffffffff16611fef82610902565b73ffffffffffffffffffffffffffffffffffffffff1614612045576040517f08c379a000000000000000000000000000000000000000000000000000000000815260040161203c90614412565b60405180910390fd5b600073ffffffffffffffffffffffffffffffffffffffff168273ffffffffffffffffffffffffffffffffffffffff1614156120b5576040517f08c379a00000000000000000000000000000000000000000000000000000000081526004016120ac906144a4565b60405180910390fd5b6120c283838360016129b2565b8273ffffffffffffffffffffffffffffffffffffffff166120e282610902565b73ffffffffffffffffffffffffffffffffffffffff1614612138576040517f08c379a000000000000000000000000000000000000000000000000000000000815260040161212f90614412565b60405180910390fd5b6004600082815260200190815260200160002060006101000a81549073ffffffffffffffffffffffffffffffffffffffff02191690556001600360008573ffffffffffffffffffffffffffffffffffffffff1673ffffffffffffffffffffffffffffffffffffffff168152602001908152602001600020600082825403925050819055506001600360008473ffffffffffffffffffffffffffffffffffffffff1673ffffffffffffffffffffffffffffffffffffffff16815260200190815260200160002060008282540192505081905550816002600083815260200190815260200160002060006101000a81548173ffffffffffffffffffffffffffffffffffffffff021916908373ffffffffffffffffffffffffffffffffffffffff160217905550808273ffffffffffffffffffffffffffffffffffffffff168473ffffffffffffffffffffffffffffffffffffffff167fddf252ad1be2c89b69c2b068fc378daa952ba7f163c4a11628f55a4df523b3ef60405160405180910390a46122c483838360016129b8565b505050565b60006002600083815260200190815260200160002060009054906101000a900473ffffffffffffffffffffffffffffffffffffffff169050919050565b8173ffffffffffffffffffffffffffffffffffffffff168373ffffffffffffffffffffffffffffffffffffffff161415612375576040517f08c379a000000000000000000000000000000000000000000000000000000000815260040161236c90614510565b60405180910390fd5b80600560008573ffffffffffffffffffffffffffffffffffffffff1673ffffffffffffffffffffffffffffffffffffffff16815260200190815260200160002060008473ffffffffffffffffffffffffffffffffffffffff1673ffffffffffffffffffffffffffffffffffffffff16815260200190815260200160002060006101000a81548160ff0219169083151502179055508173ffffffffffffffffffffffffffffffffffffffff168373ffffffffffffffffffffffffffffffffffffffff167f17307eab39ab6107e8899845ad3d59bd9653f200f220920489ca2b5937696c31836040516124669190613100565b60405180910390a3505050565b61247e848484611fcf565b61248a848484846129be565b6124c9576040517f08c379a00000000000000000000000000000000000000000000000000000000081526004016124c0906145a2565b60405180910390fd5b50505050565b6060600060016124de84612b55565b01905060008167ffffffffffffffff8111156124fd576124fc6135e9565b5b6040519080825280601f01601f19166020018201604052801561252f5781602001600182028036833780820191505090505b509050600082602001820190505b60011561259c578080600190039150507f3031323334353637383961626364656600000000000000000000000000000000600a86061a8153600a8581612586576125856145c2565b5b04945060008514156125975761259c565b61253d565b819350505050919050565b606060008251905060008114156125d0576040518060200160405280600081525091505061273a565b600060036002836125e191906145f1565b6125eb9190614647565b60046125f79190614678565b9050600060208261260891906145f1565b67ffffffffffffffff811115612621576126206135e9565b5b6040519080825280601f01601f1916602001820160405280156126535781602001600182028036833780820191505090505b5090506000604051806060016040528060408152602001614974604091399050600181016020830160005b868110156126f75760038101905062ffffff818a015116603f8160121c168401518060081b905060ff603f83600c1c1686015116810190508060081b905060ff603f8360061c1686015116810190508060081b905060ff603f831686015116810190508060e01b9050808452600484019350505061267e565b50600386066001811461271157600281146127215761272c565b613d3d60f01b600283035261272c565b603d60f81b60018303525b508484525050819450505050505b919050565b6127db8484848460405160240161275994939291906146d2565b6040516020818303038152906040527ff45d7d2c000000000000000000000000000000000000000000000000000000007bffffffffffffffffffffffffffffffffffffffffffffffffffffffff19166020820180517bffffffffffffffffffffffffffffffffffffffffffffffffffffffff8381831617835250505050612948565b50505050565b61287982826040516024016127f7929190614725565b6040516020818303038152906040527fb60e72cc000000000000000000000000000000000000000000000000000000007bffffffffffffffffffffffffffffffffffffffffffffffffffffffff19166020820180517bffffffffffffffffffffffffffffffffffffffffffffffffffffffff8381831617835250505050612948565b5050565b600081600001549050919050565b6128a5828260405180602001604052806000815250612ca8565b5050565b6129438383836040516024016128c193929190614755565b6040516020818303038152906040527fca47c4eb000000000000000000000000000000000000000000000000000000007bffffffffffffffffffffffffffffffffffffffffffffffffffffffff19166020820180517bffffffffffffffffffffffffffffffffffffffffffffffffffffffff8381831617835250505050612948565b505050565b60008151905060006a636f6e736f6c652e6c6f679050602083016000808483855afa5050505050565b60008073ffffffffffffffffffffffffffffffffffffffff16612993836122c9565b73ffffffffffffffffffffffffffffffffffffffff1614159050919050565b50505050565b50505050565b60006129df8473ffffffffffffffffffffffffffffffffffffffff16612d03565b15612b48578373ffffffffffffffffffffffffffffffffffffffff1663150b7a02612a08611e79565b8786866040518563ffffffff1660e01b8152600401612a2a94939291906147e8565b602060405180830381600087803b158015612a4457600080fd5b505af1925050508015612a7557506040513d601f19601f82011682018060405250810190612a729190614849565b60015b612af8573d8060008114612aa5576040519150601f19603f3d011682016040523d82523d6000602084013e612aaa565b606091505b50600081511415612af0576040517f08c379a0000000000000000000000000000000000000000000000000000000008152600401612ae7906145a2565b60405180910390fd5b805181602001fd5b63150b7a0260e01b7bffffffffffffffffffffffffffffffffffffffffffffffffffffffff1916817bffffffffffffffffffffffffffffffffffffffffffffffffffffffff191614915050612b4d565b600190505b949350505050565b600080600090507a184f03e93ff9f4daa797ed6e38ed64bf6a1f0100000000000000008310612bb3577a184f03e93ff9f4daa797ed6e38ed64bf6a1f0100000000000000008381612ba957612ba86145c2565b5b0492506040810190505b6d04ee2d6d415b85acef81000000008310612bf0576d04ee2d6d415b85acef81000000008381612be657612be56145c2565b5b0492506020810190505b662386f26fc100008310612c1f57662386f26fc100008381612c1557612c146145c2565b5b0492506010810190505b6305f5e1008310612c48576305f5e1008381612c3e57612c3d6145c2565b5b0492506008810190505b6127108310612c6d576127108381612c6357612c626145c2565b5b0492506004810190505b60648310612c905760648381612c8657612c856145c2565b5b0492506002810190505b600a8310612c9f576001810190505b80915050919050565b612cb28383612d26565b612cbf60008484846129be565b612cfe576040517f08c379a0000000000000000000000000000000000000000000000000000000008152600401612cf5906145a2565b60405180910390fd5b505050565b6000808273ffffffffffffffffffffffffffffffffffffffff163b119050919050565b600073ffffffffffffffffffffffffffffffffffffffff168273ffffffffffffffffffffffffffffffffffffffff161415612d96576040517f08c379a0000000000000000000000000000000000000000000000000000000008152600401612d8d906148c2565b60405180910390fd5b612d9f81612971565b15612ddf576040517f08c379a0000000000000000000000000000000000000000000000000000000008152600401612dd69061492e565b60405180910390fd5b612ded6000838360016129b2565b612df681612971565b15612e36576040517f08c379a0000000000000000000000000000000000000000000000000000000008152600401612e2d9061492e565b60405180910390fd5b6001600360008473ffffffffffffffffffffffffffffffffffffffff1673ffffffffffffffffffffffffffffffffffffffff16815260200190815260200160002060008282540192505081905550816002600083815260200190815260200160002060006101000a81548173ffffffffffffffffffffffffffffffffffffffff021916908373ffffffffffffffffffffffffffffffffffffffff160217905550808273ffffffffffffffffffffffffffffffffffffffff16600073ffffffffffffffffffffffffffffffffffffffff167fddf252ad1be2c89b69c2b068fc378daa952ba7f163c4a11628f55a4df523b3ef60405160405180910390a4612f406000838360016129b8565b5050565b6040518060a0016040528060608152602001606081526020016000815260200160008152602001600081525090565b6040518060c001604052806000815260200160608152602001606081526020016000815260200160008152602001600081525090565b828054612fb590613a2c565b90600052602060002090601f016020900481019282612fd7576000855561301e565b82601f10612ff057805160ff191683800117855561301e565b8280016001018555821561301e579182015b8281111561301d578251825591602001919060010190613002565b5b50905061302b919061302f565b5090565b5b80821115613048576000816000905550600101613030565b5090565b6000604051905090565b600080fd5b600080fd5b60007fffffffff0000000000000000000000000000000000000000000000000000000082169050919050565b61309581613060565b81146130a057600080fd5b50565b6000813590506130b28161308c565b92915050565b6000602082840312156130ce576130cd613056565b5b60006130dc848285016130a3565b91505092915050565b60008115159050919050565b6130fa816130e5565b82525050565b600060208201905061311560008301846130f1565b92915050565b600081519050919050565b600082825260208201905092915050565b60005b8381101561315557808201518184015260208101905061313a565b83811115613164576000848401525b50505050565b6000601f19601f8301169050919050565b60006131868261311b565b6131908185613126565b93506131a0818560208601613137565b6131a98161316a565b840191505092915050565b6000819050919050565b6131c7816131b4565b82525050565b600060a08301600083015184820360008601526131ea828261317b565b91505060208301518482036020860152613204828261317b565b915050604083015161321960408601826131be565b50606083015161322c60608601826131be565b50608083015161323f60808601826131be565b508091505092915050565b6000602082019050818103600083015261326481846131cd565b905092915050565b600082825260208201905092915050565b60006132888261311b565b613292818561326c565b93506132a2818560208601613137565b6132ab8161316a565b840191505092915050565b600060208201905081810360008301526132d0818461327d565b905092915050565b6132e1816131b4565b81146132ec57600080fd5b50565b6000813590506132fe816132d8565b92915050565b60006020828403121561331a57613319613056565b5b6000613328848285016132ef565b91505092915050565b600073ffffffffffffffffffffffffffffffffffffffff82169050919050565b600061335c82613331565b9050919050565b61336c81613351565b82525050565b60006020820190506133876000830184613363565b92915050565b61339681613351565b81146133a157600080fd5b50565b6000813590506133b38161338d565b92915050565b600080604083850312156133d0576133cf613056565b5b60006133de858286016133a4565b92505060206133ef858286016132ef565b9150509250929050565b60008060006060848603121561341257613411613056565b5b6000613420868287016133a4565b9350506020613431868287016133a4565b9250506040613442868287016132ef565b9150509250925092565b60006020828403121561346257613461613056565b5b6000613470848285016133a4565b91505092915050565b613482816131b4565b82525050565b600060208201905061349d6000830184613479565b92915050565b600060c0820190506134b86000830189613479565b81810360208301526134ca818861327d565b905081810360408301526134de818761327d565b90506134ed6060830186613479565b6134fa6080830185613479565b61350760a0830184613479565b979650505050505050565b61351b816130e5565b811461352657600080fd5b50565b60008135905061353881613512565b92915050565b6000806040838503121561355557613554613056565b5b6000613563858286016133a4565b925050602061357485828601613529565b9150509250929050565b600060a0820190508181036000830152613598818861327d565b905081810360208301526135ac818761327d565b90506135bb6040830186613479565b6135c86060830185613479565b6135d56080830184613479565b9695505050505050565b600080fd5b600080fd5b7f4e487b7100000000000000000000000000000000000000000000000000000000600052604160045260246000fd5b6136218261316a565b810181811067ffffffffffffffff821117156136405761363f6135e9565b5b80604052505050565b600061365361304c565b905061365f8282613618565b919050565b600067ffffffffffffffff82111561367f5761367e6135e9565b5b6136888261316a565b9050602081019050919050565b82818337600083830152505050565b60006136b76136b284613664565b613649565b9050828152602081018484840111156136d3576136d26135e4565b5b6136de848285613695565b509392505050565b600082601f8301126136fb576136fa6135df565b5b813561370b8482602086016136a4565b91505092915050565b6000806000806080858703121561372e5761372d613056565b5b600061373c878288016133a4565b945050602061374d878288016133a4565b935050604061375e878288016132ef565b925050606085013567ffffffffffffffff81111561377f5761377e61305b565b5b61378b878288016136e6565b91505092959194509250565b600081519050919050565b600082825260208201905092915050565b6000819050602082019050919050565b600060c0830160008301516137db60008601826131be565b50602083015184820360208601526137f3828261317b565b9150506040830151848203604086015261380d828261317b565b915050606083015161382260608601826131be565b50608083015161383560808601826131be565b5060a083015161384860a08601826131be565b508091505092915050565b600061385f83836137c3565b905092915050565b6000602082019050919050565b600061387f82613797565b61388981856137a2565b93508360208202850161389b856137b3565b8060005b858110156138d757848403895281516138b88582613853565b94506138c383613867565b925060208a0199505060018101905061389f565b50829750879550505050505092915050565b600060208201905081810360008301526139038184613874565b905092915050565b600060c08301600083015161392360008601826131be565b506020830151848203602086015261393b828261317b565b91505060408301518482036040860152613955828261317b565b915050606083015161396a60608601826131be565b50608083015161397d60808601826131be565b5060a083015161399060a08601826131be565b508091505092915050565b600060208201905081810360008301526139b5818461390b565b905092915050565b600080604083850312156139d4576139d3613056565b5b60006139e2858286016133a4565b92505060206139f3858286016133a4565b9150509250929050565b7f4e487b7100000000000000000000000000000000000000000000000000000000600052602260045260246000fd5b60006002820490506001821680613a4457607f821691505b60208210811415613a5857613a576139fd565b5b50919050565b7f4552433732313a20617070726f76616c20746f2063757272656e74206f776e6560008201527f7200000000000000000000000000000000000000000000000000000000000000602082015250565b6000613aba60218361326c565b9150613ac582613a5e565b604082019050919050565b60006020820190508181036000830152613ae981613aad565b9050919050565b7f4552433732313a20617070726f76652063616c6c6572206973206e6f7420746f60008201527f6b656e206f776e6572206f7220617070726f76656420666f7220616c6c000000602082015250565b6000613b4c603d8361326c565b9150613b5782613af0565b604082019050919050565b60006020820190508181036000830152613b7b81613b3f565b9050919050565b7f4552433732313a2063616c6c6572206973206e6f7420746f6b656e206f776e6560008201527f72206f7220617070726f76656400000000000000000000000000000000000000602082015250565b6000613bde602d8361326c565b9150613be982613b82565b604082019050919050565b60006020820190508181036000830152613c0d81613bd1565b9050919050565b7f4552433732313a20696e76616c696420746f6b656e2049440000000000000000600082015250565b6000613c4a60188361326c565b9150613c5582613c14565b602082019050919050565b60006020820190508181036000830152613c7981613c3d565b9050919050565b7f4552433732313a2061646472657373207a65726f206973206e6f74206120766160008201527f6c6964206f776e65720000000000000000000000000000000000000000000000602082015250565b6000613cdc60298361326c565b9150613ce782613c80565b604082019050919050565b60006020820190508181036000830152613d0b81613ccf565b9050919050565b600081905092915050565b7f7b226e616d65223a202200000000000000000000000000000000000000000000600082015250565b6000613d53600a83613d12565b9150613d5e82613d1d565b600a82019050919050565b6000613d748261311b565b613d7e8185613d12565b9350613d8e818560208601613137565b80840191505092915050565b7f202d2d204e465420233a20000000000000000000000000000000000000000000600082015250565b6000613dd0600b83613d12565b9150613ddb82613d9a565b600b82019050919050565b7f222c20226465736372697074696f6e223a2022416e2065706963204e4654222c60008201527f2022696d616765223a2022697066733a2f2f0000000000000000000000000000602082015250565b6000613e42603283613d12565b9150613e4d82613de6565b603282019050919050565b7f222c202261747472696275746573223a205b207b202274726169745f7479706560008201527f223a20224865616c746820506f696e7473222c202276616c7565223a20000000602082015250565b6000613eb4603d83613d12565b9150613ebf82613e58565b603d82019050919050565b7f2c20226d61785f76616c7565223a000000000000000000000000000000000000600082015250565b6000613f00600e83613d12565b9150613f0b82613eca565b600e82019050919050565b7f7d2c207b202274726169745f74797065223a202241747461636b2044616d616760008201527f65222c202276616c7565223a2000000000000000000000000000000000000000602082015250565b6000613f72602d83613d12565b9150613f7d82613f16565b602d82019050919050565b7f7d205d7d00000000000000000000000000000000000000000000000000000000600082015250565b6000613fbe600483613d12565b9150613fc982613f88565b600482019050919050565b6000613fdf82613d46565b9150613feb8289613d69565b9150613ff682613dc3565b91506140028288613d69565b915061400d82613e35565b91506140198287613d69565b915061402482613ea7565b91506140308286613d69565b915061403b82613ef3565b91506140478285613d69565b915061405282613f65565b915061405e8284613d69565b915061406982613fb1565b9150819050979650505050505050565b7f646174613a6170706c69636174696f6e2f6a736f6e3b6261736536342c000000600082015250565b60006140af601d83613d12565b91506140ba82614079565b601d82019050919050565b60006140d0826140a2565b91506140dc8284613d69565b915081905092915050565b7f4572726f723a20636861726163746572206d757374206861766520485020746f60008201527f2061747461636b20626f73732e00000000000000000000000000000000000000602082015250565b6000614143602d8361326c565b915061414e826140e7565b604082019050919050565b6000602082019050818103600083015261417281614136565b9050919050565b7f4572726f723a20626f7373206d757374206861766520485020746f206174746160008201527f636b20636861726163746572732e000000000000000000000000000000000000602082015250565b60006141d5602e8361326c565b91506141e082614179565b604082019050919050565b60006020820190508181036000830152614204816141c8565b9050919050565b7f4e487b7100000000000000000000000000000000000000000000000000000000600052601160045260246000fd5b6000614245826131b4565b9150614250836131b4565b9250828210156142635761426261420b565b5b828203905092915050565b60006040820190506142836000830185613479565b6142906020830184613479565b9392505050565b7f4e487b7100000000000000000000000000000000000000000000000000000000600052603260045260246000fd5b60006142d1826131b4565b91507fffffffffffffffffffffffffffffffffffffffffffffffffffffffffffffffff8214156143045761430361420b565b5b600182019050919050565b60006060820190506143246000830186613363565b6143316020830185613479565b61433e6040830184613479565b949350505050565b60006080820190508181036000830152614360818761327d565b90508181036020830152614374818661327d565b90506143836040830185613479565b8181036060830152614395818461327d565b905095945050505050565b7f4552433732313a207472616e736665722066726f6d20696e636f72726563742060008201527f6f776e6572000000000000000000000000000000000000000000000000000000602082015250565b60006143fc60258361326c565b9150614407826143a0565b604082019050919050565b6000602082019050818103600083015261442b816143ef565b9050919050565b7f4552433732313a207472616e7366657220746f20746865207a65726f2061646460008201527f7265737300000000000000000000000000000000000000000000000000000000602082015250565b600061448e60248361326c565b915061449982614432565b604082019050919050565b600060208201905081810360008301526144bd81614481565b9050919050565b7f4552433732313a20617070726f766520746f2063616c6c657200000000000000600082015250565b60006144fa60198361326c565b9150614505826144c4565b602082019050919050565b60006020820190508181036000830152614529816144ed565b9050919050565b7f4552433732313a207472616e7366657220746f206e6f6e20455243373231526560008201527f63656976657220696d706c656d656e7465720000000000000000000000000000602082015250565b600061458c60328361326c565b915061459782614530565b604082019050919050565b600060208201905081810360008301526145bb8161457f565b9050919050565b7f4e487b7100000000000000000000000000000000000000000000000000000000600052601260045260246000fd5b60006145fc826131b4565b9150614607836131b4565b9250827fffffffffffffffffffffffffffffffffffffffffffffffffffffffffffffffff0382111561463c5761463b61420b565b5b828201905092915050565b6000614652826131b4565b915061465d836131b4565b92508261466d5761466c6145c2565b5b828204905092915050565b6000614683826131b4565b915061468e836131b4565b9250817fffffffffffffffffffffffffffffffffffffffffffffffffffffffffffffffff04831182151516156146c7576146c661420b565b5b828202905092915050565b600060808201905081810360008301526146ec818761327d565b90508181036020830152614700818661327d565b905061470f6040830185613479565b61471c6060830184613479565b95945050505050565b6000604082019050818103600083015261473f818561327d565b905061474e6020830184613479565b9392505050565b6000606082019050818103600083015261476f818661327d565b905061477e6020830185613479565b61478b6040830184613479565b949350505050565b600081519050919050565b600082825260208201905092915050565b60006147ba82614793565b6147c4818561479e565b93506147d4818560208601613137565b6147dd8161316a565b840191505092915050565b60006080820190506147fd6000830187613363565b61480a6020830186613363565b6148176040830185613479565b818103606083015261482981846147af565b905095945050505050565b6000815190506148438161308c565b92915050565b60006020828403121561485f5761485e613056565b5b600061486d84828501614834565b91505092915050565b7f4552433732313a206d696e7420746f20746865207a65726f2061646472657373600082015250565b60006148ac60208361326c565b91506148b782614876565b602082019050919050565b600060208201905081810360008301526148db8161489f565b9050919050565b7f4552433732313a20746f6b656e20616c7265616479206d696e74656400000000600082015250565b6000614918601c8361326c565b9150614923826148e2565b602082019050919050565b600060208201905081810360008301526149478161490b565b905091905056fe506c617965722061747461636b656420626f73732e204e657720626f73732068703a2025734142434445464748494a4b4c4d4e4f505152535455565758595a6162636465666768696a6b6c6d6e6f707172737475767778797a303132333435363738392b2f426f73732061747461636b656420706c617965722e204e657720706c617965722068703a2025730a4d696e746564204e465420772f20746f6b656e496420257320616e6420636861726163746572496e6465782025730a506c6179657220772f206368617261637465722025732061626f757420746f2061747461636b2e2048617320257320485020616e64202573204144a264697066735822122020918bb8c03b6b4d1d1de957a5e7d0b30ca1d7c244a61bd0d1fc40ba47ee3fde64736f6c63430008090033446f6e6520696e697469616c697a696e6720257320772f2048502025732c20696d67202573446f6e6520696e697469616c697a696e6720626f737320257320772f2048502025732c20696d67202573",
  "linkReferences": {},
  "deployedLinkReferences": {}
}